:020000040800F2
:1000000090040020010100083F1800088714000830
:100010003D18000893070008AB1900080000000015
:10002000000000000000000000000000431800086D
:100030009507000800000000411800084518000856
:100040001B0100081B0100081B0100081B01000820
:100050001B0100081B0100081B0100081B01000810
:1000600099070008050800081B0100081B0100088B
:100070001B0100081B0100081B0100081B010008F0
:100080001B0100081B0100081B0100081B010008E0
:100090001B0100081B0100081B0100081B010008D0
:1000A0001B010008D91800081B0100081B010008EB
:1000B0001B0100081B010008000000001B010008D4
:1000C0001B01000800000000000000001B010008E8
:1000D000000000001B0100081B01000800000000D8
:1000E0001B0100081B0100081B010008DFF80CD0F1
:1000F00000F01EFB00480047552A0008900400202D
:100100000648804706480047FEE7FEE7FEE7FEE7B1
:10011000FEE7FEE7FEE7FEE7FEE7FEE791180008D0
:10012000ED000008202A04DB203A21FA02F0002129
:10013000704721FA02F3D040C2F1200291400843F7
:1001400019467047D2B201E000F8012B491EFBD2DC
:1001500070470022F6E710B513460A4604461946D2
:10016000FFF7F0FF204610BD2DE9FE4F804681EAE3
:100170000300C00F0C46009021F0004123F0004521
:10018000B8EB0200A94105D24046214690461C46E4
:100190000B46024623F00040104347D0270DC7F31B
:1001A0000A00C3F30A510290401A019040286BDA0A
:1001B000C3F3130040F4801B0098924620B1002343
:1001C000D2EB030A63EB0B0B01985946C0F14002D6
:1001D000504600F0A8F906460D4650465946019A89
:1001E00000F0B0F910EB08006141002487EA1152D9
:1001F00084EAE7731A4340D0009A62B3019A012A55
:100200004FEA075215DC001B61EB02014FF0004280
:1002100002EA0752CDE90042001C41F58011324646
:100220002B4600F0B0F903B0BDE8F08F4046214600
:10023000F9E7001B61EB0201001C41F58013001877
:100240005B412018A2F5001747EB030140EAD57087
:10025000B6196D4111E06D084FEA360645EAC075E2
:100260004FEA0752001B61EB0201001C41F58011AF
:1002700049084FEA30000019514132462B4603B07D
:10028000BDE8F04F00F070B9009801224000002353
:10029000D0EB020263EBE073009821464FEAE07472
:1002A000B8EB000061EB0401E9E783F000435BE792
:1002B00081F0004158E72DE9FE4F81EA030404F084
:1002C000004421F0004100944FF0000B23F0004364
:1002D00050EA01045ED052EA03045BD0C3F30A542F
:1002E000C1F30A552C44A4F2F3340194A0FB025448
:1002F000C1F3130141F48011C3F3130343F48013DA
:1003000001FB024400FB034E840A970A44EA81542D
:1003100047EA8357A4FB076802958D0A05FB07850A
:100320004FEA932C04FB0C542705029D4FEA065814
:1003300047EA1637B5EB08056EEB070C870E920EF1
:1003400047EA811742EA8312A7FB0201B6EB0B01D1
:1003500064EB00042B0D43EA0C335E1844EB1C5095
:10036000DA465146E7FB0201C5F313044FEA0B33AB
:1003700043EA14534FEA0432019C43EA0603A4F112
:100380000C040294009CCDE900B400F0FCF803B02A
:10039000BDE8F08F00200146F9E770B521F0004379
:1003A00003430CD0C1F30A550024D5EB040564EBDC
:1003B0000403D617AD1AB34102DB0020014670BD1D
:1003C000201841EB025170BD0EB5C10F80EAE070FC
:1003D0000844CA07002140F233438DE80E000A4664
:1003E0000B4600F0D0F803B000BD0EB540F233412B
:1003F00002910021CDE900110A460B4600F0C3F836
:1004000003B000BDC1F30A5210B5C1F3130140F2AD
:10041000FF3341F480119A4201DA002010BD40F20E
:1004200033439A42A2F2334203DC5242FFF77AFE90
:1004300010BD904010BD000030B5041E71F10004E5
:1004400004DB4FF00044404264EB0101141E73F1E1
:10045000000405DB1C464FF00043524263EB0403EB
:100460008B4208BF824230BD30B5041E71F10004DA
:1004700004DB4FF00044404264EB0101141E73F1B1
:10048000000405DB1C464FF00043524263EB0403BB
:10049000994208BF904230BD30B50B46014600205E
:1004A0002022012409E021FA02F59D4205D303FA36
:1004B00002F5491B04FA02F52844151EA2F10102B7
:1004C000F1DC30BD2DE9F05F0546002092469B46E9
:1004D00088460646814640241BE02846414647465A
:1004E0002246FFF71FFE53465A46C01A914110D3C9
:1004F00011461846224600F016F82D1A67EB01083F
:100500004F4622460120002100F00DF817EB0009AC
:100510004E41201EA4F10104DFDC484631462A4644
:100520004346BDE8F09F202A04DB203A00FA02F19E
:10053000002070479140C2F1200320FA03F31943D1
:1005400090407047202A06DBCB17203A41FA02F090
:1005500043EAE07306E041FA02F3D040C2F1200220
:10056000914008431946704710B5141E73F10004FA
:1005700008DA401C41F1000192185B411A4301D195
:1005800020F0010010BD2DE9F04D92469B4611B1BF
:10059000B1FA81F202E0B0FA80F220329046FFF721
:1005A000C2FF04460F4640EA0A0041EA0B015346E7
:1005B0005A46084313D0114653EA010019D0C8F136
:1005C00040025046FFF7AEFD05460E4650465946DE
:1005D0004246FFF7A8FF084305D0012004E020466B
:1005E0003946BDE8F08D0020054346EAE0762C430D
:1005F00037430A986305E40AA0EB08000022FD0ACD
:1006000044EA47540A3002D500200146E9E70105D3
:1006100010196941DDE9084500196941BDE8F04D4F
:10062000A2E72DE9F04D81EA030404F0004B21F02C
:10063000004514464FF0000A23F0004150EA05023D
:1006400020D054EA01021DD0C5F30A570246C5F373
:100650001303C1F31300C1F30A5640F4801543F4A9
:100660008013A7EB0608101BD64608F2FD3873EB83
:10067000050002D308F1010801E092185B41B8F1CE
:10068000000F03DA00200146BDE8F08D00204FF492
:100690008011064684460EE0171B73EB050705D351
:1006A000121B63EB050306434CEA010C49084FEAB1
:1006B000300092185B4150EA0107EDD152EA030085
:1006C00012D082EA040083EA0501084305D0101B1A
:1006D000AB4106D20122002306E000224FF0004386
:1006E00002E06FF0010253101AEB06004CEB0851C8
:1006F00010EB0A0041EB0B01BDE8F04DFFF734BFF2
:10070000C1F30A52C1F3130140F2FF3341F48011E7
:100710009A4202DA00200146704740F233439A427F
:10072000A2F2334202DC5242FFF7FCBCFFF7FBBEF1
:10073000064C074D06E0E06840F0010394E807002E
:1007400098471034AC42F6D3FFF7D4FCD02C000805
:10075000F02C000870B5C1F30A5201F000450024E6
:10076000C1F3130140F2FF3341F480119A4201DAE0
:10077000002070BD40F233439A42A2F2334203DCC0
:100780005242FFF7CFFC00E090402C43F1D04042B2
:1007900070BDFEE77047000070B50221134800F0FD
:1007A00073F9144D124E144C2A4688B1D4E9020153
:1007B000124BFFF741FE07D2D4E902012A46334625
:1007C000FFF7D2FCC4E90201BDE8704001F00CB9AA
:1007D000D4E902010A4BFFF747FEF5D2D4E9020142
:1007E0002A463346FFF761FDECE70000000C0140AC
:1007F0009999B93F9A999999000000209999E93FF0
:100800009999C93F10B50221094800F03DF90949FD
:100810000028086807D0322801DA401C0860BDE8CB
:10082000104001F0C3B80128F9DD401EF6E70000D2
:10083000000C01400000002070B5164D04460E4625
:100840002868FFF7C1FD144A144BFFF734FD224618
:100850003346FFF730FD02F04FF90022104BFFF74F
:1008600083FC06460C46D5E902010122FFF795FDFF
:1008700000224FF08043FFF71BFD32462346FFF76F
:10088000DBFD01D8012000E00020BDE87040FFF74B
:10089000ACBD00000000002082AED8BA2F22194063
:1008A0000000F03F70B5044600F0F8F80546601C03
:1008B00002D004480078044400F0F0F8401BA04245
:1008C000FAD370BD3C0000202DE9F84FDFF89C9171
:1008D000002409F1040A0AF1040B23460F270BF147
:1008E000040EBBE00125A5402A40AA4276D1DFF8DC
:1008F00080C14E68A6EB0C0866452BD00DDC032E9C
:1009000034D005DC36B3012E19D0022E2FD11BE0D6
:10091000112E16D0122E2AD119E0B8F5881F19D041
:1009200006DCB8F5803F15D0B8F5801F1FD111E067
:10093000B8F5001F0ED0B8F5041F18D10AE0CB6837
:1009400015E0CB681B1D12E0CB6808330FE0CB68C5
:100950000C330CE08B682BB1012B4FF0080303D054
:10096000456104E0042302E0056100E00023FF2A62
:1009700001D8064601E000F104064FEA840501D9DA
:10098000A5F12005D6F8008007FA05FC28EA0C0836
:1009900003FA05F548EA0508C6F800804D68ED0041
:1009A0005BD5344DAE6946F00106AE61AD6924F009
:1009B000030605F0010500952F4D06EB050CDCF84C
:1009C0000850A607360F07FA06F825EA0805DFF8EB
:1009D000AC80404503D14FF0000810E03DE0DFF867
:1009E000A080404502D14FF0010808E0DFF8948074
:1009F000404502D14FF0020801E04FF0030808FA29
:100A000006F848EA0508CCF808804D68D9F8006077
:100A1000ED034D4601D5164300E096432E604D6828
:100A2000DAF80060AD03554601D5164300E0964361
:100A30002E604D68DBF80060ED025D4601D516437F
:100A400000E096432E604D68DEF80060AD0275460A
:100A500001D5164300E096432E60641C0A6832FA02
:100A600004F57FF43FAFBDE8F88F000000040140BB
:100A70000000111000100240000001400008014079
:100A8000000C0140001001408068084000D00120A7
:100A900070470AB1016170470904FBE701488068AB
:100AA000704700003C000020024881680278114431
:100AB000816070473C000020074810B5016841F094
:100AC00010010160032000F075F8002000F006F826
:100AD00000F024F8002010BD0020024070B50D4D3C
:100AE00004464FF47A712878B1FBF0F00A4909689E
:100AF000B1FBF0F000F0FCFA48B9102C07D200224C
:100B00002146501E00F036F800206C6070BD0120B8
:100B100070BD00003C000020480000200C4808B5D3
:100B2000816941F001018161816901F00101009158
:100B3000C16941F08051C161C06900F080500090EE
:100B40000448416821F0E06141F08061416008BDE6
:100B50000010024000000140002809DB00F01F02E5
:100B6000012191404009800000F1E020C0F800110F
:100B700070470000F0B40E4B1B680C46C3F3022311
:100B8000C3F10705042D00D90425191D072901D239
:100B9000002300E0DB1E012606FA05F1491E214074
:100BA00099409E40761E16403143F0BC00F073BF62
:100BB0000CED00E0064900F0070208684FF6FF035D
:100BC000184040EA0220034A1043086070470000C2
:100BD0000CED00E00000FA052DE9F0470F46050096
:100BE00061D0434E306800F00700B84209D2306847
:100BF00020F0070038433060306800F00700B8424A
:100C000051D128683B4C810712D5400703D5606855
:100C100040F4E06060602878000703D5606840F425
:100C2000605060606068A96820F0F0000843606070
:100C30002878C00728D06868012810D021680228C9
:100C400010D0890700292EDA616821F003010143E1
:100C50006160FFF723FF804641F288390DE021688B
:100C60008903EFE78901EDE7FFF718FFA0EB080123
:100C7000494502D90320BDE8F0876068696800F043
:100C80000C00B0EB810FEFD1306800F00700B842E4
:100C90000BD9306820F0070038433060306800F02E
:100CA0000700B84201D00120E5E72878400705D5C4
:100CB0006068E96820F4E060084360602878000715
:100CC00006D56068296920F4605040EAC100606080
:100CD00000F048F86168084AC1F30311515CC8404C
:100CE0000649086006480068FFF7F8FE0020C2E7E2
:100CF0000020024000100240982B0008480000200D
:100D0000400000200F2202600C4A536803F00303E6
:100D10004360536803F0F0038360536803F4E063B7
:100D2000C36052684FF4E06303EAD20202610448F0
:100D3000006800F0070008607047000000100240E3
:100D4000002002400448054900684968044AC1F38C
:100D50000221515CC840704748000020001002404A
:100D6000A82B000812A185B00FC98DE80F0014A0B0
:100D7000144A006804905168134801F00C03042BD6
:100D800010D0082B0ED1C1F38343C9031DF8030013
:100D90000AD5516804AAC1F34041515C0A4A504344
:100DA000B0FBF1F005B0704708494843FAE700008E
:100DB00002030405060708090A0B0C0D0E0F10109C
:100DC000010200000010024000127A0000093D00FC
:100DD0002DE9F84F040070D02078C04DC00749D0ED
:100DE0006868C0F38100012807D06868C0F38100FB
:100DF000022809D16868C00306D52868800339D560
:100E000060680028E7D035E06068B0F5803F0BD01F
:100E100010B1B0F5A02F11D0286820F480302860E0
:100E2000286820F4802002E0286840F480302860A0
:100E3000606890B1FFF732FE06460AE0286840F489
:100E400080202860F0E700BFFFF728FE801B6428A1
:100E500073D828688003F7D50CE0FFF71FFE06461D
:100E600005E000BFFFF71AFE801B6428F0D8286851
:100E70008003F7D420789A4E80074FF001094FF095
:100E8000000839D5686810F00C0F07D06868C0F307
:100E90008100022809D16868C00306D42868800749
:100EA00014D52069012808D110E02069B0B1C6F836
:100EB0000090FFF7F3FD074605E00AE1FFF7EEFDBE
:100EC000C01B0228C4D828688007F7D52868616944
:100ED00020F0F80040EAC10028600DE0C6F800806C
:100EE000FFF7DCFD074604E0FFF7D8FDC01B022832
:100EF00023D828688007F7D4207800072CD57948B4
:100F0000A169D9B1C0F80090FFF7C8FD074604E019
:100F1000FFF7C4FDC01B02280FD8686A8007F7D509
:100F200071484FF4FA510068B0FBF1F0009000BF37
:100F30000098411E0091FAD20EE080E0C0F80080D7
:100F4000FFF7ACFD074604E0FFF7A8FDC01B022831
:100F500075D8686A8007F7D42078400760D5E869BB
:100F60000027C00008D4E86940F08050E861E869D3
:100F7000012700F0805000905C480168C90513D437
:100F80000168834641F480710160FFF787FD824666
:100F900006E000BFFFF782FDA0EB0A0064284ED8F0
:100FA000DBF80000C005F5D5E06801280AD008B1DB
:100FB000052813D0286A20F001002862286A20F052
:100FC000040002E0286A40F001002862E06841F273
:100FD000883B98B1FFF762FD82460BE0286A40F03B
:100FE00004002862EEE700BFFFF758FDA0EB0A01FE
:100FF00059455AD8286A8007F6D50CE0FFF74EFD10
:10100000824605E0FFF74AFDA0EB0A0159454CD89E
:10101000286A8007F6D41FB1E86920F08050E861A3
:10102000E06988B36968C1F38101022944D00228CC
:10103000C6F8608004D0FFF731FD044638E034E0A4
:10104000FFF72CFD074604E0FFF728FDC01B022830
:101050002BD828688001F7D4206AB0F5803F05D1ED
:101060006868A16820F4003008436860D4E908018A
:101070000843696821F4741108436860C6F86090F9
:10108000FFF70CFD044606E025E000BFFFF706FD74
:10109000001B022809D828688001F7D51BE000BF93
:1010A000FFF7FCFC001B022802D90320BDE8F88FE3
:1010B00028688001F4D40EE00128F7D06868226A1D
:1010C00000F48031914204D1616A00F470108842CA
:1010D00001D00120EAE70020E8E70000001002400C
:1010E000000042428004424248000020007000405C
:1010F00010B5401EB0F1807F01D3012010BD4FF02C
:10110000E02460610F21601700F0C5FC0020A061A1
:1011100007202061002010BD7047704770B590F81F
:101120003C20012A19D0012400F83C4F02224270D1
:1011300050F83C3C5A689D6822F070060A6849687D
:10114000324325F0800529435A6050F83C2C9160C9
:10115000447000210170084670BD022070BD10B5BA
:10116000040003D094F83D0010B107E0012010BD49
:10117000002084F83C00204600F00CF8022084F89F
:101180003D00211D206800F0ADFB012084F83D00EA
:10119000002010BD08B500680B49884212D10B48E9
:1011A000816941F4006181618069002200F400607E
:1011B000009011461920FFF7DDFCBDE8084019201A
:1011C000FFF7CABC08BD0000002C0140001002401F
:1011D0000168CA6842F00102CA600068816801F0D3
:1011E0000701062903D0016841F0010101600020D8
:1011F000704770B5044690F83C00012817D00125CF
:1012000084F83C50022084F83D002068826822F077
:10121000770222F47F4282600868502830D00DDCCB
:1012200020284DD005DC98B310283BD148E002209F
:1012300070BD302844D0402834D139E0602828D00F
:10124000702806D0B0F5805F2CD0B0F5005F29D1B2
:101250000AE0CB68D1E90121206800F071FB206829
:10126000816841F0770109E0CB68D1E9012120686C
:1012700000F066FB2068816841F48041816011E0E4
:10128000CA684968206800F06DFB5021206807E0BB
:1012900016E0CA684968206800F075FB6021206884
:1012A00000F058FB84F83D50002084F83C0070BDED
:1012B000CA684968206800F055FB40212068EFE7C4
:1012C000226801461046EBE7704770B50446006897
:1012D00001694FF00005C943890715D4C168C943A6
:1012E000890711D4E91E01610120207720688069F7
:1012F0008007204602D0FFF7E7FF04E000F098F8EF
:10130000204600F096F8257720680169C94349070F
:1013100017D4C168C943490713D46FF004010161B0
:10132000022020772068806910F4407F204602D098
:10133000FFF7CAFF04E000F07BF8204600F079F8E0
:10134000257720680169C943090716D4C168C943D4
:10135000090712D46FF0080101610420207720688A
:10136000C0698007204602D0FFF7AEFF04E000F01E
:101370005FF8204600F05DF8257720680169C943D1
:10138000C90617D4C168C943C90613D46FF0100148
:101390000161082020772068C06910F4407F204652
:1013A00002D0FFF791FF04E000F042F8204600F081
:1013B00040F8257720680169C943C90708D1C16889
:1013C000C943C90704D1891E0161204600F032F8E3
:1013D00020680169C943090609D4C168C9430906DF
:1013E00005D46FF0800101612046FFF795FE20686B
:1013F0000169C943490609D4C168C943490605D4EE
:101400006FF040010161204600F03CF8206801695E
:10141000C94389060BD4C168C943890607D46FF054
:10142000200101612046BDE87040FFF776BE70BD27
:10143000704770472DE9F041114C0E4D0E4ED4E926
:1014400004010E4FFFF7F8F900221346FEF7F4FFF0
:1014500001D1002200E0012201212846FFF719FBFB
:10146000D4E9040132463B46FEF77EFEC4E904019E
:10147000BDE8F081000C0140FCA9F1D24D62503F63
:10148000000000207047FEE70121084600F0D8B8B0
:101490000121022000F0D4B82DE9F05F0AAC94E8F5
:1014A000E05F1E4CA061A180E280E361258166813E
:1014B000A781A4F80E80C4F82090A4F810A0A4F886
:1014C00012B0A4F814C0A4F816E000F049F8012006
:1014D00020703820A0701420FFF7E4F9302000F0CD
:1014E0002FF90520FFF7DEF9302000F029F901205F
:1014F000FFF7D8F9302000F023F90120FFF7D2F9E7
:10150000382000F01DF90F2000F01AF9012000F03A
:1015100017F9BDE8F05F0220FFF7C4B918000020FA
:1015200010B5094C0122E188A069FFF7B2FA0A2040
:1015300000F05EF80022E188A069FFF7AAFABDE892
:1015400010403C2000F054B818000020020003486E
:101550008188806900D00122FFF79BBA1800002023
:1015600000B587B005A96846FFF7CCFB039898B390
:10157000FFF7E8FB5FEA4000FEF737FF184A194B18
:10158000FEF799FEFEF73EFF1749CA6942F00202D4
:10159000CA6116490A6822F010020A600A6822F03D
:1015A00001020A600A6822F004020A600A6842F036
:1015B00008020A600D492831401E08600920091DF3
:1015C00008600A49012014310860081F016821F0F1
:1015D0000101016007B000BDFFE7FFF7B3FBCBE7F8
:1015E0008DEDB5A0F7C6B03E0010024000040040EB
:1015F0000949401E086008481C38016821F00101B3
:10160000016005492C390A6842F001020A6001684C
:10161000C907FCD0704700002C04004070B5064696
:10162000002409E00120FFF791FF284600F016F89A
:10163000641CE4B2102C02D2355D002DF2D170BDD5
:10164000491E01F00F01012804D041F0C00000BF85
:1016500000F076B841F08000FAE700002DE9F84F7D
:101660000209364C02F0080302F0040B217802F064
:10167000020902F0010700F0080A00F0040600F079
:10168000020500F00108009301292FD0022952D150
:101690003A46218A206AFFF7FCF94A46618A206AA5
:1016A000FFF7F7F95A46A18A206AFFF7F2F9E18AB3
:1016B000009A206AFFF7EDF9FFF732FF4246218AD0
:1016C000206AFFF7E6F92A46618A206AFFF7E1F906
:1016D0003246A18A206AFFF7DCF95246E18A206A85
:1016E000FFF7D7F9BDE8F84FFFF71ABF4246218947
:1016F000E069FFF7CEF92A466189E069FFF7C9F989
:101700003246A189E069FFF7C4F95246E189E069F0
:10171000FFF7BFF93A46218A206AFFF7BAF94A462D
:10172000618A206AFFF7B5F95A46A18A206AFFF755
:10173000B0F9009AD2E7BDE8F88F00001800002049
:1017400010B504460020FFF701FF2046BDE8104019
:10175000FFF784BF2DE9F04186B000241F480094B4
:10176000019402940394816941F0040181618169CB
:1017700001F004010491816941F0080181618069EF
:10178000174F00F0080040F2FF3504900022294670
:101790003846FFF77EF9DFF84C80002201214046F1
:1017A000FFF777F90095022601250396CDE901544C
:1017B00069463846FFF788F803960095CDE901544D
:1017C00069464046FFF780F80E208DE831006946F3
:1017D0004046FFF779F806B0BDE8F08100100240FE
:1017E00000080140000C014010B586B000241248EA
:1017F000009401940294039404940E4905940160AA
:1018000041F63F71C0E901140121C0E903144461AC
:101810008461FFF7A4FC4FF48050009069460648AD
:10182000FFF7E7FC049404A903480594FFF776FC4E
:1018300006B010BD002C014050000020FEE77047AC
:1018400070477047FFF730B930B58FB02821684630
:10185000FEF77FFC14210AA8FEF77BFC012002257D
:1018600004900095102005900024CDE907546846A7
:101870000994FFF7ADFA0F20CDE90A056802CDE91A
:101880000C4000210AA80E94FFF7A6F90FB030BD56
:101890000D48016841F00101016041680B4A1140A7
:1018A000416001680A4A11400160016821F4802109
:1018B0000160416821F4FE0141604FF41F01816025
:1018C0000449C00308607047001002400000FFF8A0
:1018D000FFFFF6FE08ED00E00148FFF7F6BC000050
:1018E0005000002070B50268134B144C4FF0804636
:1018F000984203D0B04201D0A04203D122F070053B
:101900004A682A43984203D0B04201D0A04203D192
:1019100022F44074CA6822434C6922F080022243B8
:1019200002608A68C2620A688262984201D10969CB
:1019300001630121416170BD002C014000040040A1
:1019400010B5846842EA032224F47F440A43224308
:10195000826010BD826822F070020A4342F00701E3
:101960008160704710B5036A046A24F001040462C0
:10197000846924F0F00444EA021423F00A020A43C2
:101980008461026210BD10B5036A23F01003036284
:101990008369046A23F4704343EA023224F0A0030B
:1019A00043EA01118261016210BDFEE71FB5FFF736
:1019B0006BFD08A0FFF732FE09480A22694600685D
:1019C00001F00EF86846FFF729FE06A0FFF726FE95
:1019D0001FBD00004672657175656E637920000059
:1019E00000000020200000001FB5FFF751FD08A0F7
:1019F000FFF714FE09480AA1D0E90223684600F067
:101A000015F86846FFF70AFE07A0FFF707FE1FBD9F
:101A10004F63637570616E637920000000000020E1
:101A200025302E3166000000200000000FB4084B66
:101A300010B504A902AA039800F036FC044602A9D6
:101A4000002000F0C8FF204610BC5DF814FB000029
:101A5000D7290008490050EAC12018BF04204A0DC8
:101A600018BF40F0010040F2FF72B2EB515F08BFB7
:101A700040F00200012808BF05207047002809DB5C
:101A800000F01F02012191404009800000F1E02098
:101A9000C0F8001170470907090E002804DB00F1A7
:101AA000E02080F80014704700F00F0000F1E02003
:101AB00080F8141D704700002DE9F74F144694B0CC
:101AC0000021C4E902111599079121F00045C94987
:101AD0008D4206DC1599C4E9000117B00020BDE86D
:101AE000F08FC549DFF814A3A9423CDD0799C44E25
:101AF0000029C44FC44A1599534619DDFEF7D5FB9A
:101B0000554506D0C14AC24BFEF7CFFBC4E90001E0
:101B10000AE04FF0D352BE4BFEF7C7FB32463B46BE
:101B2000FEF7C3FBC4E9000117B00120BDE8F08F48
:101B3000FEF71AFB554506D0B44AB54BFEF714FB29
:101B4000C4E900010AE04FF0D352B14BFEF70CFBA1
:101B500032463B46FEF708FBC4E9000117B04FF0E0
:101B6000FF30BDE8F08FAB49A942159978DB21F031
:101B7000004183468846A84AA84BFEF79CFB0022FA
:101B8000A74BFEF7F1FAFEF7E5FD0990FEF71CFC06
:101B900006460F469C4A5346FEF78DFB43465A467F
:101BA000FEF786FB80468A46984A994B304639466E
:101BB000FEF781FB2A0D01250B9242465346FEF7A4
:101BC00077FB032DC4E9000139D00B98C1F30A510A
:101BD000401A05EB45111139814230DA9148C3466C
:101BE000784400EB0510CDF80CA00C90D0E9002350
:101BF00030463946FEF75FFB02460B4604910690DD
:101C000058460399FEF751FB80468A4602460B462A
:101C100058460399FEF749FB049B069AFEF745FBDD
:101C200083460C9803913946D0E902233046FEF7EB
:101C300042FB5A46039BFEF738FB6D1CBDE7079835
:101C40000028A2BF099817B0BDE8F08F616881F045
:101C500000416160099817B04042BDE8F08FFFE78E
:101C600084461598C1F31301C0F30A50A0F2F53071
:101C70004FEA601800F01F06C6F120001390002004
:101C80000690079041F4801E05206D4676B1664AA5
:101C900008EB00017A4452F8213002EB8101B34095
:101CA0004A68139922FA01F1194305E05F4908EBEC
:101CB0000002794451F82210A1FB0E27A1FB0C135E
:101CC0001A449A4234BF0123002303EB070A05EBB1
:101CD0008003D3E901B70F448F4234BF01210021B3
:101CE00093448B4411B1934502D903E0934501D24B
:101CF000012100E00021C3E901B7514445F820105B
:101D0000011EA0F10100C1DC0298059F00F1005006
:101D1000800F12900298DDE903568000FEF754FB15
:101D2000834628460D91FEF760FB6FF01D02FEF71B
:101D300034FBCDE90E013046FEF757FB6FF03D0254
:101D4000FEF72BFB80468A463846FEF74EFB6FF0C7
:101D50005D02FEF722FB0746424653461191FEF70D
:101D600003FADDE90E23FEF7FFF95A460D9BFEF755
:101D7000FBF900250E465A4628460D9BFEF795FABC
:101D8000DDE90E23FEF791FA42465346FEF78DFA3F
:101D90003A46119BFEF78CFADFF898A0244A534686
:101DA000FEF789FA07468846234A244B31462846DF
:101DB000FEF781FA3A464346FEF7D6F907468846CB
:101DC0004FF0A842534631462846FEF774FA3A4689
:101DD0004346FEF7C9F9159A12F0004F04D0129A43
:101DE00081F0004152421292C4E90001129817B0EA
:101DF000BDE8F08FFB21E93F7CD90240FB21F93F90
:101E00007370032E8A19A33B000040543163621A99
:101E100061B4D03DFB21394183C8C96D305FE43FD7
:101E20000000E03FFC0F0000780F00005A0F000098
:101E3000182D4454FB21F93D3326A611460B113CC5
:101E40002DE9FF4D21F0004807460C46B8F1795FB7
:101E500008DAFEF77FFC002801BF0020324904B0F9
:101E6000BDE8F08D3A46234610461946FEF723FAA0
:101E7000054602462D480E460B460621784400F0E2
:101E80005DF82A463346FEF716FADDE9022382465C
:101E90008B4638462146FEF70EFA04460F46524658
:101EA0005B4628463146FEF706FA22463B46FEF7D9
:101EB000FCF907468A464FF0FF3228463146FEF7C6
:101EC0006CFA1B4A90450ADA3A465346FEF7EDF99A
:101ED00004B00022BDE8F04D134BFEF7E9B9154AF6
:101EE0004245A8BFA8F500154FF00004B8BF124D39
:101EF00022462B46FEF7D9F90646884622462B464F
:101F000000200949FEF7D1F904460D463A465346EA
:101F100030464146FEF7C9F904B022462B46BDE8DB
:101F2000F04DFEF7C5B900000000F03F300D000095
:101F30003333D33F0000E93F0000D23F2DE9F041A9
:101F40004F1E00EBC7010446D1E9000115461E46AD
:101F500037F006020DD02A463346FEF7ACF97F1E55
:101F600004EBC703D3E90023FEF7FEF837F00602BF
:101F7000F1D1022F25D0042F13D0062F18BFBDE8B2
:101F8000F0812A463346FEF796F9D4E90A23FEF794
:101F9000EBF82A463346FEF78EF9D4E90823FEF71C
:101FA000E3F82A463346FEF786F9D4E90623FEF71E
:101FB000DBF82A463346FEF77EF9D4E90423FEF720
:101FC000D3F82A463346FEF776F9D4E90223FEF722
:101FD000CBF82A463346FEF76EF9D4E90023BDE874
:101FE000F041FEF7C1B800002DE9FF4D054621F094
:101FF000004084B00C46B0F1795F0BDA2846FFF759
:1020000029FD042808BF00F06FF8284608B02146D3
:10201000BDE8F08D2A460B461046FEF74CF9064601
:102020000F462A462346FEF746F9804626488A464A
:1020300032463B4605217844FFF780FF83461098DF
:10204000029160B3214A224B40465146FEF733F9D4
:10205000CDE900015A4640465146029BFEF72BF956
:1020600082468846DDE906014FF0FF32FEF795F91A
:1020700052464346FEF719F932463B46FEF71BF936
:10208000DDE90623FEF711F9DDE90023FEF70DF97E
:1020900008B02A462346BDE8F04DFEF709B90B46C5
:1020A0005A4630463946FEF706F9084A084BFEF70D
:1020B0005BF842465346FEF7FEF808B02A46234630
:1020C000BDE8F04DFEF750B86E0C0000495555556F
:1020D0005555C5BF0122FEF760B9002213461046D0
:1020E0001146FEF79EBA0000024A00201107FEF7D3
:1020F00054B9000001FDFFFF02E008C8121F08C12B
:10210000002AFAD170477047002001E001C1121F78
:10211000002AFBD1704700000149086070470000A9
:102120004C0000202DE9FF5F82B00021DDE9043082
:10213000020DDDF840B0034318D044F61050A2F26F
:10214000FF3242431514119801281FD0A5EB0B0054
:10215000401C5FEA000A4FF000064E4FDFF838914E
:10216000B046504615D5CAF1000413E01198012479
:102170004AA3012801D16FEA0B010298119AC0E924
:102180000031C0E9024206B0BDE8F09FCBF100008B
:10219000DFE704460021404A491842EB0450CDE9EC
:1021A000001012E0E00707D032463B464046494661
:1021B000FEF781F88046894632463B46104619466E
:1021C000FEF779F806460F466410002CEAD1DDE9E7
:1021D0000401DDE90023BAF1000F06DAFEF76BF81F
:1021E00042464B46FEF767F805E0FEF71AFA42460C
:1021F0004B46FEF716FA04460E460022284BFEF721
:1022000033F903D84FF0FF30014607E00022254B99
:1022100020463146FDF7A8FFFEF772FA102409E0C8
:10222000002C0ADB0A220023FEF74CF9039B303214
:102230001A55641E50EA0102F2D1641C039AC4F1DB
:1022400011031444119A012A03D0012208430DD12D
:102250000AE0084304D000204FF0110B119072E700
:10226000A3EB0B056D1E0DE05B4504DD4FF0000296
:1022700005F1010504E003DA4FF00002A5F10105C4
:10228000002AECD002981199C0E90231C0E900455A
:1022900079E70000000014400000F03F300000002B
:1022A0000000F0430000E03F2DE9FF4F95B09B4652
:1022B0008946064600250FE2252877D100242746C7
:1022C000F84A0121059400E0044316F8013F203B41
:1022D00001FA03F01042F7D130782A2811D06FF0BC
:1022E0002F033078A0F13002092A16D8059A44F05D
:1022F000020402EB820203EB42021044761C0590BA
:10230000EFE759F8042B0592002A03DA504244F40F
:102310000054059044F00204761C30782E2816D123
:1023200016F8010F44F004042A280DD06FF02F0294
:102330003078A0F13003092B09D807EB870302EBB3
:102340004303C718761CF3E759F8047B761C3078F2
:102350006C280FD006DC4C2817D068280DD06A28CE
:1023600014D104E0742810D07A280FD10DE044F481
:1023700000140AE044F4801401E044F4401472783C
:10238000824202D104F58014761C761C30786628CF
:102390000BD013DC582877D009DC002875D04528ED
:1023A000F6D04628F4D047281AD19DE118E06328DA
:1023B00035D0642879D0652812D195E1702873D082
:1023C00008DC6728F1D069286FD06E280DD06F28FF
:1023D00006D1B5E073282CD0752875D0782874D034
:1023E0005A46179990476D1C75E1C4F302500228B4
:1023F00009D003280DD0D9F8001004280DD00D60A5
:1024000009F1040967E1D9F80010EA17C1E900529F
:10241000F6E7D9F800100D80F2E70D70F0E719F833
:10242000041B8DF8001000208DF80100EA46012001
:1024300003E059F804AB4FF0FF3061074FF00001A3
:1024400002D40DE008F101018846B9420FDA804557
:10245000F8DB1AF808100029F4D108E008F10101AE
:1024600088468142FADB1AF808100029F6D105984F
:102470005B46A0EB080721463846179A00F094FA0D
:10248000284400EB080507E04DE029E10DE01AF8CB
:10249000010B5A4617999047B8F10108F7D25B46ED
:1024A00021463846179A13E142E00A220092C4F30B
:1024B00002524FF0000A022A08D059F804CB032A2E
:1024C0004FEAEC710AD00DE029E02AE009F107019A
:1024D00021F00702F2E802C1914609E00FFA8CFCF4
:1024E0004FEAEC71042A03D14FFA8CFC4FEAEC71ED
:1024F000002907DA0A460021DCF1000C61EB020139
:102500002D2202E0220504D52B228DF80420012281
:1025100003E0E20701D02022F7E7904659E00A21C4
:1025200002E010220DE010214FF0000A00910BE0B4
:1025300010224FF0000A44F004040827009203E040
:1025400008224FF0000A0092C4F30252022A05D07A
:1025500059F804CB0021032A08D009E009F107014A
:1025600021F00702F2E802C1914605E01FFA8CFC57
:10257000042A01D10CF0FF0C4FF00008220728D5E7
:10258000702806D0009B83F0100353EA0A0305D09D
:102590000EE040228DF80420012208E05CEA0102EE
:1025A00006D030228DF804208DF8050002229046D6
:1025B000009B83F0080353EA0A030AD15CEA010294
:1025C00001D1620705D530228DF804204FF00108B3
:1025D0007F1E582804D034A003900EA802900DE06E
:1025E00036A0F9E753466046009AFDF76BFF844634
:1025F0000398825C0298401E029002705CEA01001F
:10260000F0D1029806A9081A00F1200A600702D545
:1026100024F4803400E00127574502DDA7EB0A00CF
:1026200000E0002000EB0A01009005984144401AA8
:102630000590E00306D45B462146179A059800F002
:10264000B3F90544002706E001A85A46C05D179972
:1026500090476D1C7F1C4745F6DBE0030CD55B46BD
:102660002146179A059800F09FF9054404E03020B0
:102670005A46179990476D1C0099481E00900029F2
:10268000F5DC08E0029802995A460078491C02914C
:10269000179990476D1CBAF10001AAF1010AF1DC0B
:1026A00065E1000009280100303132333435363716
:1026B000383961626364656600000000303132338E
:1026C000343536373839414243444546000000002E
:1026D00000F058F90544761C307800287FF4ECAD02
:1026E00019B02846BDE8F08F620700D4062709F12B
:1026F000070222F0070CFCE80223E14603F0004841
:102700005FEA080C02D00FF2702C0DE05FEA045C67
:1027100002D50FF2682C07E05FEAC47C02D00FF20A
:10272000602C01E0AFF2700C4FF0FF3823F0004353
:10273000CDF850C065280CD006DC452809D04628C5
:102740001DD047283DD13DE0662818D067287ED1AE
:1027500038E00021112F01DB112000E0781CCDE9C9
:10276000000106A90EA8FFF7DDFCDDE90F010E9AB6
:1027700003910021009207F1010A04914DE04FF00E
:1027800000400097CDE9011006A90EA8FFF7CAFC8A
:10279000DDE90F0203920E9B11990022DDF80CA0D7
:1027A0000093049211B9791C00EB010AB7EB0A00FF
:1027B00004D4C0F1FF3007F1010A0490AAEB07002E
:1027C000019044E0012F00DA01270021112F01DDE3
:1027D000112000E03846CDE9000106A90EA8FFF758
:1027E000A1FCDDE90F010E9A0391002104910092F2
:1027F000BA4621070CD40399514500DA8A46BAF14A
:10280000010F05DD009AAAF10101515C302908D0C1
:10281000B84202DA10F1040F06DA0121CDE9011005
:1028200015E0AAF10101E9E7002805DC049901445B
:102830000491AAEB000102E0411C514500DD8A46EB
:102840000499401A401C01904FF00040029020076C
:1028500004D40198504501DBCDF8048000208DF8A8
:102860004F0002980DF14F07B0F1004F25D02B20FB
:102870000E9002984FF0020800280CDA40420290B5
:102880002D200E9007E00A210298FDF705FE303159
:10289000029007F8011DB8F10001A8F10108F2DC6F
:1028A00002980028EFD1791E0E980870307800F059
:1028B000200040F0450007F8020D12A8C01B00F1EF
:1028C00007081498007800B1012000EB0A01019874
:1028D00001EBE07105984144401A401E0590E00369
:1028E00006D45B462146179A059800F05DF805442A
:1028F0001498007818B15A46179990476D1CE00358
:1029000024D55B462146179A059800F04DF80544FA
:102910001CE00498002807DBDDE90301884203DDA1
:102920000098405C179901E0179930205A4690476B
:10293000049805F10105401C04900198401E019087
:1029400004D12E205A46179990476D1CBAF1000108
:10295000AAF1010ADDDC05E017F8010B5A461799C8
:1029600090476D1CB8F10001A8F10108F4DC5B464A
:102970002146179A0598ABE62D0000002B000000B9
:10298000200000002DE9F041044600251E461746B0
:10299000880404D405E039462020B0476D1C641E2D
:1029A000F9D52846BDE8F0812DE9F041044600251F
:1029B0001E469046C80301D5302700E02027880432
:1029C00004D505E041463846B0476D1C641EF9D574
:1029D0002846BDE8F0810A68531C0B6010707047F0
:1029E000AFF30080F0B589B00446684619B1242AD7
:1029F00001DC012A02DC002009B0F0BD06460A2AEB
:102A000004D1002C02DA012764420EE000270CE01A
:102A1000B4FBF2F302FB1345B4FBF2F40A2D01DA26
:102A2000303500E0573500F8015B002CF0D1B042A2
:102A3000EED00B4647B12D221A704B1C04E000BFAC
:102A400010F8012D03F8012BB042F9D800201870BE
:102A50000846D1E78AB0FEF72FF8FEF7F5FEFEF73D
:102A600079FEFEF7C1FE2048816841F488518160FB
:102A70001E48016841F00C010160001D016841F031
:102A80000C01016019480C30016841F00C01016033
:102A900016480838016841F00C0101600820FEF773
:102AA000EDFF0920FEF7EAFF0DF1140C8023402210
:102AB000202110208CE80F000D48042202920821EA
:102AC000CDE9031002230121CDE90013034682154D
:102AD0004115FEF7E1FC0748FEF77AFBFEF766FFBB
:102AE000FEF782FFFEE700000000014008040140FD
:102AF000000801405000002000B5254B21F00042A5
:102B000087B09A4203DC0022134600922BE0214B4F
:102B10009A4208D140B94FF00100FFF7FDFAFFF7E4
:102B2000DCFA07B000BD03DBFFF7D4FA07B000BD45
:102B300002AAFEF7C1FF10F003014FF001000DD013
:102B4000012914D002291AD00DF1080C9CE80F00BD
:102B5000FFF776F907B081F0004100BD0DF1080CD8
:102B600000909CE80F00FFF73FFA07B000BD0DF1A1
:102B7000080C9CE80F00FFF763F907B000BD0DF1EA
:102B8000080C00909CE80F00FFF72EFAE2E7000027
:102B9000FB21E93F0000F07F000000000000000082
:102BA00001020304060708090000000001020304F3
:102BB0004C5555555555A53F7751C1166CC156BF5B
:102BC0009015CB19A001FA3EAD529C804F7E92BE6B
:102BD000C4B1B4BD9EEE213ED43888BEE9FAA8BD8A
:102BE00000004054FB21F93F3163621A61B4D03DCB
:102BF0000000601A61B4D03D7370032E8A19A33BA4
:102C00000000002E8A19A33BC14920259A837B39F5
:102C100000000000000000006E83F9A22915444E58
:102C2000D15727FCC0DD34F5999562DB4190433CD8
:102C3000AB6351FE61C5BBDE3A6E24B7E0D24D42B4
:102C4000EA2E49061C92D1091CEB1DFE3EA729B1B4
:102C5000F53582E88444BB2E26709CE9417E5FB442
:102C600039D69139F43953838B5F849C3B28F9BD65
:102C7000FF97F81F0F9805DE8B112FEF1F6D0A5A73
:102C8000CF7E366DB709CB27663F464F2DEA5F9E54
:102C9000C7BA27757BF1E5EBF739073DEA92528A0F
:102CA000B15FFB6B085D8D1FA6F810111111813FFC
:102CB000D561C119A0012ABF7DFEB157E31DC73EF2
:102CC000EB9C2B8AE6E55ABE7CD5CF5A3AD9E53D36
:102CD000F02C00080000002050000000F820000840
:102CE000402D00085000002040040000082100088A
:102CF0000900000000000000000000000000E03FAC
:102D0000FCA9F1D24D62503F010F380000000000D5
:102D100000000000000000000000000000000000B3
:102D200000000000000000000000000001000000A2
:102D300010000000000000000024F400000000006B
:04000005080000ED02
:00000001FF
